:100000000C945D000C9440090C9419090C94850023
:100010000C9485000C9485000C9485000C9485004C
:100020000C9485000C9485000C9485000C9485003C
:100030000C9485000C9485000C9485000C9485002C
:100040000C94CF080C9485000C9465040C948500E6
:100050000C94F4030C9485000C9485000C9485009A
:100060000C9485000C9485000000000024002700FB
:100070002A0000000000250028002B0004040404CE
:100080000404040402020202020203030303030342
:10009000010204081020408001020408102001021F
:1000A00004081020000000080002010000030407FB
:1000B0000000000000000000670911241FBECFEF00
:1000C000D8E0DEBFCDBF11E0A0E0B1E0EAE6FFE19D
:1000D00002C005900D92AC32B107D9F721E0ACE235
:1000E000B1E001C01D92A43CB207E1F710E0CDE5FC
:1000F000D0E004C02197FE010E943C0DCC35D10711
:10010000C9F70E9486090C94B30F0C940000EF927B
:10011000FF920F931F93CF93DF93EC0190912F01E8
:100120009F5F292F277020932F0190FF02C090E836
:1001300001C090E021FD9064247009F0906220E1FC
:10014000290FFE013C967E018FE0E80EF11C00E0D5
:1001500011E06191662331F070E0C8010E94C10C8A
:100160006F5F01C060E0DF0114976C93322F369F00
:10017000030E30E0311D1124CF010797311103C068
:10018000EC01188203C03150EC013883662311F072
:1001900061506C93EE15FF05E1F6DF91CF911F9151
:1001A0000F91FF90EF90089580E991E00895569A9D
:1001B00008950F931F93CF93DF93CDB7DEB7629768
:1001C0000FB6F894DEBF0FBECDBF8C01F901DC0184
:1001D0001C968C917A8369835C834B835E834D8309
:1001E00090819D8791819E8792819F87813029F49C
:1001F000CE0101960E94870006C01C861B861A86C7
:10020000198618861F8283E0888B1A8A198AD8017A
:10021000ED91FC910484F585E02DBE016F5F7F4F69
:10022000C801099562960FB6F894DEBF0FBECDBF28
:10023000DF91CF911F910F9108950F931F93CF934B
:10024000DF93CDB7DEB762970FB6F894DEBF0FBE6F
:10025000CDBF8C01F901DC011C968C917A836983F6
:100260005C834B835E834D8390819D8791819E87C4
:1002700092819F87813029F4CE0101960E948700E8
:1002800006C01C861B861A86198618861F82188A45
:100290001A8A198AD801ED91FC910484F585E02D24
:1002A000BE016F5F7F4FC801099562960FB6F89443
:1002B000DEBF0FBECDBFDF91CF911F910F9108958B
:1002C000811105C0809134018F5F809334010895BE
:1002D00080E090E00895FC01858596850895CF9390
:1002E000DF9300D000D000D0CDB7DEB7AB011C82C9
:1002F0001D821E82DC01ED91FC910190F081E02DC8
:1003000019821A821B829E012F5F3F4FBE016C5FD4
:100310007F4F099526960FB6F894DEBF0FBECDBF6E
:10032000DF91CF9108954F925F926F927F928F925B
:10033000AF92BF92CF92EF92FF920F931F93CF9302
:10034000DF933C01EB010E944707F30127853089C9
:10035000621B730B6A307105B0F3F894E881F98180
:100360005BB150648BB18F7B8BB969859E81262FE1
:10037000291B922F2E83BF844A805B807C85FE845C
:10038000ED847F5FF394E39438854F81AB84CA8416
:100390001081D20120E0C32F022F322F308111278C
:1003A00088943111390F08F43FEF9195889470FDCE
:1003B000130F1795889471FD130F1795889472FD8C
:1003C000130F1795889473FD130F1795889474FD78
:1003D000130F1795889475FD130F1795889476FD64
:1003E000130F1795889477FD130F17958894232F73
:1003F0007111212F960F122F002C5BB900C000C085
:1004000017FF8BB932812227889400C0002C8BB94A
:1004100031113C0F00C0002C5BB900C000C016FFBA
:100420008BB908F43FEFC195889400C0002C8BB9BC
:10043000F0FC230F00C0002C5BB900C000C015FF0A
:100440008BB927958894F1FC230F00C0002C8BB941
:100450002795889400C0002C5BB900C000C014FF31
:100460008BB9F2FC230F2795889400C0002C8BB920
:10047000F3FC230F00C0002C5BB900C000C013FFC9
:100480008BB927958894F4FC230F00C0002C8BB9FE
:100490002795889400C0002C5BB900C000C012FFF3
:1004A0008BB9F5FC230F2795889400C0002C8BB9DD
:1004B000F6FC230F00C0002C5BB900C000C011FF88
:1004C0008BB927958894F7FC230F00C0002C8BB9BB
:1004D0002795889400C0002C5BB900C000C010FFB5
:1004E0008BB9132FF110122FCA0D00C0002C8BB93D
:1004F00000C000C0002C5BB900C000C017FF8BB962
:1005000031812227889400C0002C8BB93111340F1F
:1005100000C0002C5BB900C000C016FF8BB908F406
:100520003FEFEB0DF11D00C0002C8BB9E0FC230F59
:1005300000C0002C5BB900C000C015FF8BB9279527
:100540008894E1FC230F00C0002C8BB92795889478
:1005500000C0002C5BB900C000C014FF8BB9E2FCE6
:10056000230F2795889400C0002C8BB9E3FC230F40
:1005700000C0002C5BB900C000C013FF8BB92795E9
:100580008894E4FC230F00C0002C8BB92795889435
:1005900000C0002C5BB900C000C012FF8BB9E5FCA5
:1005A000230F2795889400C0002C8BB9E6FC230FFD
:1005B00000C0002C5BB900C000C011FF8BB92795AB
:1005C0008894E7FC230F00C0002C8BB927958894F2
:1005D00000C0002C5BB900C000C010FF8BB9132F06
:1005E000E110122F419500C0002C8BB94C0D00C0BA
:1005F00000C05BB900C000C017FF8BB93081222753
:10060000889400C0002C8BB93111390F00C0002C28
:100610005BB900C000C016FF8BB908F43FEF91959D
:10062000889400C0002C8BB970FD230F00C0002CF3
:100630005BB900C000C015FF8BB92795889471FD88
:10064000230F00C0002C8BB92795889400C0002C84
:100650005BB900C000C014FF8BB972FD230F279552
:10066000889400C0002C8BB973FD230F00C0002CB0
:100670005BB900C000C013FF8BB92795889474FD47
:10068000230F00C0002C8BB92795889400C0002C44
:100690005BB900C000C012FF8BB975FD230F279511
:1006A000889400C0002C8BB976FD230F00C0002C6D
:1006B0005BB900C000C011FF8BB92795889477FD06
:1006C000230F00C0002C8BB92795889400C0002C04
:1006D0005BB900C000C010FF8BB9132F7111122F2E
:1006E000960F00C0002C8BB9119709F086CE20EE32
:1006F00031E0D2010E94160DDC01CB01F4E0B69589
:10070000A79597958795FA95D1F720E030E0A90154
:100710006AE9469E412D569E400D511D1124840FBD
:10072000951FA11DB11D893E43E09407A105B105A8
:1007300088F1885E9340A109B10942E0B695A7957A
:10074000979587954A95D1F747E0849F212D949FEF
:10075000200D311D112460912E0170E0860F971F2E
:10076000820F931F4091300150913101609132010D
:1007700070913301292F3327420F531F611D711DC3
:1007800040933001509331016093320170933301F3
:1007900080932E0178940E944707F301708B67873E
:1007A000DF91CF911F910F91FF90EF90CF90BF906D
:1007B000AF908F907F906F905F904F90089560E022
:1007C00083E10E9422068BEB94EDFC013197F1F757
:1007D000FC013197F1F7FC013197F1F70197F1F73F
:1007E00061E083E10C9422061F920F920FB60F92E4
:1007F00011242F933F934F935F936F937F938F9326
:100800009F93AF93BF93EF93FF93809141018093A8
:10081000560181110CC01092C50080915301809344
:10082000C4001092C60081E0809341013DC0813038
:1008300081F41092C500809152018093C4001092FF
:10084000C60082E08093410110924501109244015C
:100850002BC0809144019091450140913701509106
:1008600038019C012F5F3F4F309355012093540175
:10087000FA01E80FF91F80818093C600809148013A
:10088000909149012817390759F4E0915901F091E5
:100890005A01309711F080E009951092410104C08F
:1008A0003093450120934401FF91EF91BF91AF91A7
:1008B0009F918F917F916F915F914F913F912F9178
:1008C0000F900FBE0F901F9018951F920F920FB6AA
:1008D0000F9211242F933F934F935F936F937F93C6
:1008E0008F939F93AF93BF93EF93FF938091C0003B
:1008F00080933D019091C60090933E019091390103
:1009000090933F0184FF10C08091C0008F7E809340
:10091000C00080914A0190914B01909343018093D4
:10092000420181E08093390180913F01813081F45F
:1009300080913E01811109C082E08093390180914C
:1009400035019091360101964AC0109239014BC091
:100950008230B1F4809142019091430101979093CC
:10096000430180934201892BF1F583E080933901A3
:10097000E0913501F091360180913E01808333C0D2
:10098000833089F5E0913A01F0913B01F0935801F1
:10099000E093570180913E018083809157019091AF
:1009A0005801019690935801809357014091350169
:1009B000509136012091460130914701240F351F97
:1009C0008217930760F010923901E0915B01F0917A
:1009D0005C01309741F080914001099504C09093EB
:1009E0003B0180933A01FF91EF91BF91AF919F91AD
:1009F0008F917F916F915F914F913F912F910F90C8
:100A00000FBE0F901F9018954F925F926F927F923A
:100A1000AF92BF92CF92DF92EF92FF920F931F930C
:100A2000CF93DF93FC011082118212824423B9F12B
:100A30008B01075F1F4F5C01EB012C96442E512C5C
:100A4000612C712CD8011397CC90D8012D918D0178
:100A5000CC20F9F02223E9F0822F90E0A0E0B0E072
:100A60009C01AD012F5F3F4F4F4F5F4FC301B2015C
:100A70000E94B10C9B01AC01D12CE12CF12CC701DF
:100A8000B6016F5F7F4F8F4F9F4F0E94B10CD50112
:100A90008C93BFEFAB1ABB0A0C171D0799F6CF0159
:100AA000DF91CF911F910F91FF90EF90DF90CF904A
:100AB000BF90AF907F906F905F904F90089520E02F
:100AC000DC0160FF03C001C02D932D936250E0F75D
:100AD0007040D0F70895CF93DF93C091A701D091D4
:100AE000A801209789F08A819B81009749F06D8544
:100AF0007E859B01220F331F620F731F0E945F05CB
:100B00000C80DD81C02DEDCFDF91CF910895CF9383
:100B1000DF9390E0FC01E057FF4F2491FC01E45883
:100B2000FF4F8491882361F190E0880F991FFC01A9
:100B3000E859FF4FC591D491FC01EE58FF4FA591A4
:100B4000B491611109C09FB7F894888120958223E0
:100B50008883EC912E230BC0623061F49FB7F89428
:100B60003881822F809583238883EC912E2B2C93C0
:100B70009FBF06C08FB7F894E8812E2B28838FBFC4
:100B8000DF91CF9108952FB7F89460913001709163
:100B9000310180913201909133012FBF0895CF929E
:100BA000DF92EF92FF920F931F93CF93DF93809189
:100BB000B1019091B201EC012196D093B201C093A2
:100BC000B10149979CF10E94C3058B019C0188EEFD
:100BD00093E0C89FB001C99F700DD89F700D11247C
:100BE000072E000C880B990BC090AD01D090AE0180
:100BF000E090AF01F090B001A90198012C193D09D6
:100C00004E095F090E94D50C3093B5012093B401C1
:100C10001092B2011092B1010E94C3056093AD0120
:100C20007093AE018093AF019093B001DF91CF91AB
:100C30001F910F91FF90EF90DF90CF90089508954E
:100C40000E94A70F90E0FC01EC55FF4F3491FC018E
:100C5000E057FF4F2491FC01E458FF4FE491EE234D
:100C600009F43BC0332339F1333091F038F431309B
:100C7000A9F0323001F584B58F7D12C0373091F084
:100C80003830A1F03430B9F4809180008F7D03C0FA
:100C9000809180008F77809380000DC084B58F771E
:100CA00084BD09C08091B0008F7703C08091B000EF
:100CB0008F7D8093B000F0E0EE0FFF1FEE58FF4FE6
:100CC000A591B4918FB7F894EC91611103C0209570
:100CD0002E2301C02E2B2C938FBF08952F923F926D
:100CE0004F925F926F927F928F929F92AF92BF923C
:100CF000CF92DF92EF92FF920F931F93CF93DF93E8
:100D0000CDB7DEB729970FB6F894DEBF0FBECDBFC3
:100D1000898749835A836B837C830091A701109153
:100D2000A801ADE74A2E512C612C712C011511053B
:100D300009F46FC0D801ED91FC910084F185E02D9C
:100D4000C80109951C01F801A281B3811296C12C3A
:100D5000D12C7601812C912C540120E030E0A901A6
:100D60000097A9F0FD0132976081260F311D411DCA
:100D7000511D31966081860E911CA11CB11C6C9195
:100D8000C60ED11CE11CF11C01971396E9CFA0E51A
:100D9000B0E00E941D0D6D837E838F839887A7E34B
:100DA000B0E0A50194010E941D0D4B015C01ABE474
:100DB000B0E0A70196010E941D0D472F582F692F03
:100DC0007727F5E0F29D9001F39D300D11248D8180
:100DD0009E81AF81B885C92EDA2EEB2EFF24C20E7C
:100DE000D31EE11CF11C4C0C5D1C6E1C7F1C892C5D
:100DF0009A2CAB2CBB24480C591C6A1C7B1C440E3F
:100E0000551E661E771ED80114960D911C911597DC
:100E10008DCFB985CB2ED12CE12CF12CA3019201E1
:100E2000C701B6010E94B10C872E982EA92EBB24B3
:100E300089819A81AB81BC8188169906AA06BB0676
:100E400060F0A7019601BC01CD010E94B10CA50183
:100E500094010E94D50C822F01C0898529960FB676
:100E6000F894DEBF0FBECDBFDF91CF911F910F91E0
:100E7000FF90EF90DF90CF90BF90AF909F908F90BA
:100E80007F906F905F904F903F902F9008953FB765
:100E9000F89480915E0190915F01A0916001B09102
:100EA000610126B5A89B05C02F3F19F00196A11D31
:100EB000B11D3FBFBA2FA92F982F8827820F911DF0
:100EC000A11DB11DBC01CD0142E0660F771F881F37
:100ED000991F4A95D1F70895CF92DF92EF92FF9232
:100EE0000F931F93CF93DF9300D01F92CDB7DEB740
:100EF000F090B3018091B6019091B701A091B80133
:100F0000B091B901892B8A2B8B2BE9F00E944707FE
:100F10000091A9011091AA012091AB013091AC017F
:100F2000DC01CB01801B910BA20BB30B0091B6012E
:100F30001091B7012091B8013091B9018017910744
:100F4000A207B307B8F20E9447076093A901709304
:100F5000AA018093AB019093AC01E091BE01F091A6
:100F6000BF01309759F04091BA015091BB01609197
:100F7000BC017091BD018F2D0995F82E0091A7013C
:100F80001091A8010115110561F1D8011C96EC9092
:100F90001C978091B4019091B5018436910510F4AD
:100FA0001C961C92D801ED91FC91C280D3804F2DEC
:100FB000B801CE0101960E940405F80145855685C9
:100FC000628173819E012F5F3F4FC801F601099531
:100FD000D8011C96EC921C9714960D911C911597B4
:100FE000D1CF0E94CF050F900F900F90DF91CF913E
:100FF0001F910F91FF90EF90DF90CF900895AF92E7
:10100000BF92CF92DF92EF92FF920F931F93CF93F5
:10101000DF9300D01F92CDB7DEB76C01F62E809122
:10102000B6019091B701A091B801B091B901892B97
:101030008A2B8B2BE9F00E9447070091A9011091A0
:10104000AA012091AB013091AC01DC01CB01801BE6
:10105000910BA20BB30B0091B6011091B701209137
:10106000B8013091B90180179107A207B307B8F210
:101070000E9447076093A9017093AA018093AB0176
:101080009093AC01E091BE01F091BF01309759F00F
:101090004091BA015091BB016091BC017091BD01BA
:1010A0008F2D0995F82E0091A7011091A801011527
:1010B000110559F1D8011C96EC901C978091B40150
:1010C0009091B5018436910510F41C961C92D801BC
:1010D000ED91FC91A080B1804F2DB801CE01019619
:1010E0000E940405F801458556859E012F5F3F4FFC
:1010F000B601C801F5010995D8011C96EC921C9720
:1011000014960D911C911597D2CF0E94CF050F9088
:101110000F900F90DF91CF911F910F91FF90EF9063
:10112000DF90CF90BF90AF9008958F929F92AF9233
:10113000BF92CF92DF92EF92FF926B017C010E94EF
:1011400047074B015C01C114D104E104F104F1F043
:101150000E944707DC01CB0188199909AA09BB093C
:10116000883E9340A105B10570F321E0C21AD10871
:10117000E108F10888EE880E83E0981EA11CB11CDE
:10118000C114D104E104F10419F7DDCFFF90EF9011
:10119000DF90CF90BF90AF909F908F9008951F9257
:1011A0000F920FB60F9211242F933F938F939F931B
:1011B000AF93BF938091300190913101A0913201A2
:1011C000B091330130915D0123E0230F2D3720F4DE
:1011D0000196A11DB11D05C026E8230F0296A11D91
:1011E000B11D20935D018093300190933101A09354
:1011F0003201B093330180915E0190915F01A09123
:101200006001B09161010196A11DB11D80935E0145
:1012100090935F01A0936001B0936101BF91AF9182
:101220009F918F913F912F910F900FBE0F901F9024
:1012300018951F920F920FB60F9211242F933F9380
:101240004F935F936F937F938F939F93AF93BF93CE
:10125000EF93FF93E0910201F09103010995FF9153
:10126000EF91BF91AF919F918F917F916F915F911E
:101270004F913F912F910F900FBE0F901F90189597
:101280001F920F920FB60F9211242F933F934F93FB
:101290005F936F937F938F939F93AF93BF93EF93DE
:1012A000FF93E0910001F09101010995FF91EF9109
:1012B000BF91AF919F918F917F916F915F914F916E
:1012C0003F912F910F900FBE0F901F901895E3EB59
:1012D000F1E08FEF808312821182148613868FEFE4
:1012E0009FEFDC0187839087A187B287E5E3F1E078
:1012F00021E030E0368B258B88E090E0928B818B6B
:10130000308F278B948B838B13860895CF93DF9335
:1013100000D01F92CDB7DEB7789484B5826084BDCB
:1013200084B5816084BD85B5826085BD85B58160E9
:1013300085BD80916E00816080936E001092810067
:101340008091810082608093810080918100816022
:1013500080938100809180008160809380008091E3
:10136000B10084608093B1008091B000816080936F
:10137000B00080917A00846080937A0080917A0036
:10138000826080937A0080917A00816080937A00F5
:1013900080917A00806880937A001092C10080E684
:1013A00091E090935C0180935B0180E18093500118
:1013B00081E090E090934B0180934A0181E290E0BC
:1013C0009093470180934601F894809140018111E8
:1013D00005C08091C10087728093C10010925101B5
:1013E00087E08093520184E1809353018091500102
:1013F0008F3F41F061E00E94870560E080915001DD
:101400000E94220680914001811118C060E00E9474
:1014100087051092C500809152018093C40080918D
:10142000C00082608093C0008091C2008E60809373
:10143000C2008091C10080698093C100109239017F
:101440000091460110914701C8010E947A0E9093C5
:10145000360180933501A80160E070E00E94AC0F76
:10146000789461E085E00E94870562E083E00E9455
:10147000870561E083E10E94870562E082E00E94C7
:10148000870561E083E10E9422068FEF8093B3011C
:1014900090917501911144C01092670110926601FC
:1014A00080936A0180936B0180936C0180936D013E
:1014B00080936E0180936F0181E0809370011092A0
:1014C000720110927101109269011092680180916D
:1014D000A7019091A801892B31F484E691E09093C3
:1014E000A8018093A701E0916201F0916301309718
:1014F00021F084E691E09583848384E691E09093E3
:1015000063018093620110927401109273018EE165
:1015100091E0909365018093640181E0809375016F
:10152000E0916401F09165010480F581E02D84E68D
:1015300091E009958EE791E09093670180936601B1
:101540008BE090E09093720180937101E0916401CF
:10155000F09165010284F385E02D84E691E0099520
:10156000009729F19C0140E050E060E472E48FE0D4
:1015700090E00E94F70C722F632F0091B60110913A
:10158000B7012091B8013091B901872F962FDA0168
:1015900080179107A207B30710F4D901C8018093FF
:1015A000B6019093B701A093B801B093B9018FED44
:1015B00093E09093010180930001809169008C7FFA
:1015C00080936900E89A8EE696E09093BF0180933D
:1015D000BE0188E99AE3A0E0B0E08093BA0190935D
:1015E000BB01A093BC01B093BD011FEF19831A8208
:1015F0001B826091B301CE0101960E94FF0768EE45
:1016000073E080E090E00E94950819821A831B82A3
:101610006091B301CE0101960E94FF0768EE73E06E
:1016200080E090E00E94950819821A821B836091E5
:10163000B301CE0101960E94FF0768EE73E080E0DF
:1016400090E00E94950819821A821B826091B30172
:10165000CE0101960E94FF070E946B0580E090E09A
:101660002FEFFC01E258FE4F208321832283039653
:1016700081329105B1F70E946C076CE271E080E065
:1016800090E00E94950880E480937C0080917A002D
:10169000806480937A0080917A0086FDFCCF60910F
:1016A00078008091790070E0782B072E000C880B71
:1016B000990B0E94CA0D22E03BE24FE550E40E94E4
:1016C000560D4B015C010E946B0500E811E0E12C16
:1016D000F12C30E8D32EB7010F2C000C880B990B9E
:1016E0000E94CA0DA50194010E94510D87FF0DC0F3
:1016F000F801329710823196D082F8011082FFEF04
:10170000EF1AFF0A0D5F1F4FE6CF0E946C0760E1E2
:1017100077E280E090E00E94950885E5E82E9BEA5C
:10172000F92E2FE0D22E00E010E09091340180914C
:10173000A601981771F00E94C3056093A2017093EF
:10174000A3018093A4019093A5018091340180931B
:10175000A6010E94C3058090A2019090A301A090D1
:10176000A401B090A501DC01CB0188199909AA094F
:10177000BB0989389341A105B10508F4ACC060E00C
:1017800085E00E94220640917D0191E0940F9093A4
:101790007D01485CE0E8F1E050E0392F3F71330F04
:1017A000330F330F632F7E2D679F060E60E0611DA0
:1017B0001124862F292F2074792F707297FD1FC056
:1017C000211109C0711103C0362F309510C08B5AFA
:1017D00030E02BEA34C071110FC02AEA329F030EA9
:1017E00030E0311D11246F2D631B362F86553323B6
:1017F00089F1232F30E023C0262F2095ACC0211182
:1018000011C071110BC07AEA379F030E30E0311D11
:1018100011242F2D231B85E5830F9DC0362F309576
:10182000262F0AC0711104C025E5260F3F2D03C0E5
:101830002AEA260F3E2D361B80E02223B1F0622FCC
:1018400020EF629F060E60E0611D282F222361F0C9
:10185000822F04C0882309F481C060E0282F70EF34
:10186000279F020E20E0211D862F332329F060EFF1
:10187000369F030E30E0311D11246D2D669F060E3C
:1018800060E0611D1124DF011297860F8C93119681
:10189000260F2C93360F30839B5F339694137DCFA6
:1018A0000E946C070E94C3054B015C0161E070E07F
:1018B00080E090E00E9495080E946C070E94C3059A
:1018C000DC01CB0188199909AA09BB094097A10538
:1018D000B10560F339C061E085E00E9422061092F4
:1018E000A1011092A00110929F0120913501309129
:1018F0003601D90180E0AD01421B530B8B30B1F0B2
:1019000012969C91129711966C9111977C91E82FE9
:10191000F0E0AF01440F551FE40FF51FE258FE4FF2
:101920007083618392838F5F1396E5CF5093A101FB
:101930004093A00180939F010E946C076CE370E0CC
:1019400080E090E00E9495080115110509F4EDCEA4
:101950000E940000EACE382F60E078CF20E0382FD8
:101960008BCFDB018F939F930E941D0DBF91AF9191
:10197000A29F800D911DA39F900DB29F900D1124E9
:10198000089597FB072E16F4009407D077FD09D031
:101990000E94280D07FC05D03EF4909581959F4F3D
:1019A0000895709561957F4F0895A1E21A2EAA1BA4
:1019B000BB1BFD010DC0AA1FBB1FEE1FFF1FA217FF
:1019C000B307E407F50720F0A21BB30BE40BF50BFC
:1019D000661F771F881F991F1A9469F76095709585
:1019E000809590959B01AC01BD01CF010895052E16
:1019F00097FB1EF400940E940E0D57FD07D00E9425
:101A0000D50C07FC03D04EF40C940E0D5095409568
:101A1000309521953F4F4F4F5F4F0895909580959A
:101A2000709561957F4F8F4F9F4F08950E94420D93
:101A3000B7FF0895821B930B08950E94420DA59F46
:101A4000900DB49F900DA49F800D911D11240895B9
:101A5000AA1BBB1B51E107C0AA1FBB1FA617B707D4
:101A600010F0A61BB70B881F991F5A95A9F78095F0
:101A70009095BC01CD010895EE0FFF1F0590F491E4
:101A8000E02D0994A29FB001B39FC001A39F700DE8
:101A9000811D1124911DB29F700D811D1124911D76
:101AA00008950E94050E08F481E008950E946A0DD1
:101AB0000C94400E0E94390E58F00E94320E40F0F5
:101AC00029F45F3F29F00C94290E51110C94740EE7
:101AD0000C942F0E0E94510E68F39923B1F35523F5
:101AE00091F3951B550BBB27AA2762177307840731
:101AF00038F09F5F5F4F220F331F441FAA1FA9F3C7
:101B000035D00E2E3AF0E0E832D091505040E695B4
:101B1000001CCAF72BD0FE2F29D0660F771F881F15
:101B2000BB1F261737074807AB07B0E809F0BB0B08
:101B3000802DBF01FF2793585F4F3AF09E3F51051C
:101B400078F00C94290E0C94740E5F3FE4F3983EE9
:101B5000D4F3869577956795B795F7959F5FC9F705
:101B6000880F911D9695879597F90895E1E0660F86
:101B7000771F881FBB1F621773078407BA0720F0FF
:101B8000621B730B840BBA0BEE1F88F7E095089568
:101B9000E89409C097FB3EF4909580957095619507
:101BA0007F4F8F4F9F4F9923A9F0F92F96E9BB27BD
:101BB0009395F695879577956795B795F111F8CF39
:101BC000FAF4BB0F11F460FF1BC06F5F7F4F8F4FA4
:101BD0009F4F16C0882311F096E911C0772321F09A
:101BE0009EE8872F762F05C0662371F096E8862F32
:101BF00070E060E02AF09A95660F771F881FDAF789
:101C0000880F9695879597F90895990F0008550FB5
:101C1000AA0BE0E8FEEF16161706E807F907C0F072
:101C200012161306E407F50798F0621B730B840B7A
:101C3000950B39F40A2661F0232B242B252B21F454
:101C400008950A2609F4A140A6958FEF811D811DF4
:101C5000089597F99F6780E870E060E008959FEF2E
:101C600080EC089500240A94161617061806090633
:101C7000089500240A941216130614060506089502
:101C8000092E0394000C11F4882352F0BB0F40F48A
:101C9000BF2B11F460FF04C06F5F7F4F8F4F9F4FCA
:101CA000089557FD9058440F551F59F05F3F71F04C
:101CB0004795880F97FB991F61F09F3F79F08795B3
:101CC0000895121613061406551FF2CF4695F1DF3C
:101CD00008C0161617061806991FF1CF86957105CC
:101CE000610508940895E894BB2766277727CB0100
:101CF00097F90895CF93DF938230910510F482E035
:101D000090E0E091C201F091C30120E030E0C0E03A
:101D1000D0E0309711F14081518148175907C0F048
:101D20004817590761F482819381209719F09B83AA
:101D30008A832BC09093C3018093C20126C02115D2
:101D4000310519F04217530718F49A01BE01DF015B
:101D5000EF010280F381E02DDCCF2115310509F17F
:101D6000281B390B2430310590F412968D919C91EB
:101D700013976115710521F0FB019383828304C0E1
:101D80009093C3018093C201FD01329644C0FD01CE
:101D9000E20FF31F81939193225031092D933C93CD
:101DA0003AC02091C0013091C101232B41F4209110
:101DB0000601309107013093C1012093C0012091A9
:101DC0000401309105012115310541F42DB73EB7CD
:101DD0004091080150910901241B350BE091C0018D
:101DE000F091C101E217F307A0F42E1B3F0B281757
:101DF000390778F0AC014E5F5F4F2417350748F084
:101E00004E0F5F1F5093C1014093C0018193919386
:101E100002C0E0E0F0E0CF01DF91CF9108950F9391
:101E20001F93CF93DF93009709F48CC0FC01329786
:101E3000138212820091C2011091C3010115110594
:101E400081F420813181820F931F2091C001309154
:101E5000C1012817390779F5F093C101E093C0015A
:101E600071C0D80140E050E0AE17BF0750F41296A1
:101E70002D913C911397AD012115310509F1D9013F
:101E8000F3CF9D01DA013383228360817181860F54
:101E9000971F8217930769F4EC0128813981260F77
:101EA000371F2E5F3F4F318320838A819B8193832D
:101EB0008283452B29F4F093C301E093C20142C011
:101EC0001396FC93EE931297ED01499159919E015F
:101ED000240F351FE217F30771F480819181840F7D
:101EE000951F029611969C938E93828193811396EF
:101EF0009C938E931297E0E0F0E0D80112968D91BA
:101F00009C911397009719F0F8018C01F6CF8D91F1
:101F10009C9198012E5F3F4F820F931F2091C0012B
:101F20003091C1012817390769F4309729F41092CC
:101F3000C3011092C20102C0138212821093C10128
:101F40000093C001DF91CF911F910F91089581E01F
:101F500090E0F8940C94B30FDC0101C06D934150F4
:0A1F60005040E0F70895F894FFCF19
:101F6A001F061F060000C4018000000000002006B2
:101F7A00200620066F016B016801000000001D01A8
:0C1F8A00D900D7006F016B01D400930157
:107E0000112484B714BE81FFF0D085E080938100F7
:107E100082E08093C00088E18093C10086E0809377
:107E2000C20080E18093C4008EE0C9D0259A86E02C
:107E300020E33CEF91E0309385002093840096BBD3
:107E4000B09BFECF1D9AA8958150A9F7CC24DD24C4
:107E500088248394B5E0AB2EA1E19A2EF3E0BF2EE7
:107E6000A2D0813461F49FD0082FAFD0023811F036
:107E7000013811F484E001C083E08DD089C08234E0
:107E800011F484E103C0853419F485E0A6D080C0E4
:107E9000853579F488D0E82EFF2485D0082F10E0AE
:107EA000102F00270E291F29000F111F8ED06801E7
:107EB0006FC0863521F484E090D080E0DECF843638
:107EC00009F040C070D06FD0082F6DD080E0C81688
:107ED00080E7D80618F4F601B7BEE895C0E0D1E017
:107EE00062D089930C17E1F7F0E0CF16F0E7DF06D8
:107EF00018F0F601B7BEE89568D007B600FCFDCFD4
:107F0000A601A0E0B1E02C9130E011968C91119780
:107F100090E0982F8827822B932B1296FA010C0160
:107F200087BEE89511244E5F5F4FF1E0A038BF0790
:107F300051F7F601A7BEE89507B600FCFDCF97BE46
:107F4000E89526C08437B1F42ED02DD0F82E2BD052
:107F50003CD0F601EF2C8F010F5F1F4F84911BD097
:107F6000EA94F801C1F70894C11CD11CFA94CF0C13
:107F7000D11C0EC0853739F428D08EE10CD085E9AC
:107F80000AD08FE07ACF813511F488E018D01DD067
:107F900080E101D065CF982F8091C00085FFFCCF94
:107FA0009093C60008958091C00087FFFCCF809118
:107FB000C00084FD01C0A8958091C6000895E0E648
:107FC000F0E098E1908380830895EDDF803219F02E
:107FD00088E0F5DFFFCF84E1DECF1F93182FE3DFCA
:107FE0001150E9F7F2DF1F91089580E0E8DFEE27F6
:047FF000FF270994CA
:027FFE00040479
:0400000300007E007B
:00000001FF
